{
    "_format": "hh-sol-artifact-1",
    "contractName": "TodoList",
    "sourceName": "contracts/TodoList.sol",
    "abi": [
        {
            "inputs": [
                {
                    "internalType": "string",
                    "name": "_task",
                    "type": "string"
                }
            ],
            "name": "addTask",
            "outputs": [],
            "stateMutability": "nonpayable",
            "type": "function"
        },
        {
            "inputs": [
                {
                    "internalType": "uint256",
                    "name": "_taskIndex",
                    "type": "uint256"
                }
            ],
            "name": "deleteTask",
            "outputs": [],
            "stateMutability": "nonpayable",
            "type": "function"
        },
        {
            "inputs": [
                {
                    "internalType": "uint256",
                    "name": "_taskIndex",
                    "type": "uint256"
                }
            ],
            "name": "getTask",
            "outputs": [
                {
                    "components": [
                        {
                            "internalType": "string",
                            "name": "task",
                            "type": "string"
                        },
                        {
                            "internalType": "bool",
                            "name": "isDone",
                            "type": "bool"
                        }
                    ],
                    "internalType": "struct TodoList.Task",
                    "name": "",
                    "type": "tuple"
                }
            ],
            "stateMutability": "view",
            "type": "function"
        },
        {
            "inputs": [],
            "name": "getTaskCount",
            "outputs": [
                {
                    "internalType": "uint256",
                    "name": "",
                    "type": "uint256"
                }
            ],
            "stateMutability": "view",
            "type": "function"
        },
        {
            "inputs": [
                {
                    "internalType": "uint256",
                    "name": "_taskIndex",
                    "type": "uint256"
                },
                {
                    "internalType": "bool",
                    "name": "_status",
                    "type": "bool"
                }
            ],
            "name": "updateStatus",
            "outputs": [],
            "stateMutability": "nonpayable",
            "type": "function"
        }
    ],
    "bytecode": "0x608060405234801561001057600080fd5b50610b20806100206000396000f3fe608060405234801561001057600080fd5b50600436106100575760003560e01c80631d65e77e1461005c578063387008c21461008c578063560f3192146100a857806367238562146100c4578063c17a340e146100e0575b600080fd5b6100766004803603810190610071919061052f565b6100fe565b6040516100839190610644565b60405180910390f35b6100a660048036038101906100a19190610692565b610229565b005b6100c260048036038101906100bd919061052f565b6102a6565b005b6100de60048036038101906100d99190610737565b61032e565b005b6100e861042d565b6040516100f59190610793565b60405180910390f35b610106610476565b60008060003373ffffffffffffffffffffffffffffffffffffffff1673ffffffffffffffffffffffffffffffffffffffff1681526020019081526020016000208381548110610158576101576107ae565b5b90600052602060002090600202019050806040518060400160405290816000820180546101849061080c565b80601f01602080910402602001604051908101604052809291908181526020018280546101b09061080c565b80156101fd5780601f106101d2576101008083540402835291602001916101fd565b820191906000526020600020905b8154815290600101906020018083116101e057829003601f168201915b505050505081526020016001820160009054906101000a900460ff161515151581525050915050919050565b806000803373ffffffffffffffffffffffffffffffffffffffff1673ffffffffffffffffffffffffffffffffffffffff168152602001908152602001600020838154811061027a576102796107ae565b5b906000526020600020906002020160010160006101000a81548160ff0219169083151502179055505050565b6000803373ffffffffffffffffffffffffffffffffffffffff1673ffffffffffffffffffffffffffffffffffffffff16815260200190815260200160002081815481106102f6576102f56107ae565b5b9060005260206000209060020201600080820160006103159190610492565b6001820160006101000a81549060ff0219169055505050565b6000803373ffffffffffffffffffffffffffffffffffffffff1673ffffffffffffffffffffffffffffffffffffffff168152602001908152602001600020604051806040016040528084848080601f016020809104026020016040519081016040528093929190818152602001838380828437600081840152601f19601f82011690508083019250505050505050815260200160001515815250908060018154018082558091505060019003906000526020600020906002020160009091909190915060008201518160000190816104069190610a18565b5060208201518160010160006101000a81548160ff02191690831515021790555050505050565b60008060003373ffffffffffffffffffffffffffffffffffffffff1673ffffffffffffffffffffffffffffffffffffffff16815260200190815260200160002080549050905090565b6040518060400160405280606081526020016000151581525090565b50805461049e9061080c565b6000825580601f106104b057506104cf565b601f0160209004906000526020600020908101906104ce91906104d2565b5b50565b5b808211156104eb5760008160009055506001016104d3565b5090565b600080fd5b600080fd5b6000819050919050565b61050c816104f9565b811461051757600080fd5b50565b60008135905061052981610503565b92915050565b600060208284031215610545576105446104ef565b5b60006105538482850161051a565b91505092915050565b600081519050919050565b600082825260208201905092915050565b60005b8381101561059657808201518184015260208101905061057b565b60008484015250505050565b6000601f19601f8301169050919050565b60006105be8261055c565b6105c88185610567565b93506105d8818560208601610578565b6105e1816105a2565b840191505092915050565b60008115159050919050565b610601816105ec565b82525050565b6000604083016000830151848203600086015261062482826105b3565b915050602083015161063960208601826105f8565b508091505092915050565b6000602082019050818103600083015261065e8184610607565b905092915050565b61066f816105ec565b811461067a57600080fd5b50565b60008135905061068c81610666565b92915050565b600080604083850312156106a9576106a86104ef565b5b60006106b78582860161051a565b92505060206106c88582860161067d565b9150509250929050565b600080fd5b600080fd5b600080fd5b60008083601f8401126106f7576106f66106d2565b5b8235905067ffffffffffffffff811115610714576107136106d7565b5b6020830191508360018202830111156107305761072f6106dc565b5b9250929050565b6000806020838503121561074e5761074d6104ef565b5b600083013567ffffffffffffffff81111561076c5761076b6104f4565b5b610778858286016106e1565b92509250509250929050565b61078d816104f9565b82525050565b60006020820190506107a86000830184610784565b92915050565b7f4e487b7100000000000000000000000000000000000000000000000000000000600052603260045260246000fd5b7f4e487b7100000000000000000000000000000000000000000000000000000000600052602260045260246000fd5b6000600282049050600182168061082457607f821691505b602082108103610837576108366107dd565b5b50919050565b7f4e487b7100000000000000000000000000000000000000000000000000000000600052604160045260246000fd5b60008190508160005260206000209050919050565b60006020601f8301049050919050565b600082821b905092915050565b6000600883026108ce7fffffffffffffffffffffffffffffffffffffffffffffffffffffffffffffffff82610891565b6108d88683610891565b95508019841693508086168417925050509392505050565b6000819050919050565b600061091561091061090b846104f9565b6108f0565b6104f9565b9050919050565b6000819050919050565b61092f836108fa565b61094361093b8261091c565b84845461089e565b825550505050565b600090565b61095861094b565b610963818484610926565b505050565b5b818110156109875761097c600082610950565b600181019050610969565b5050565b601f8211156109cc5761099d8161086c565b6109a684610881565b810160208510156109b5578190505b6109c96109c185610881565b830182610968565b50505b505050565b600082821c905092915050565b60006109ef600019846008026109d1565b1980831691505092915050565b6000610a0883836109de565b9150826002028217905092915050565b610a218261055c565b67ffffffffffffffff811115610a3a57610a3961083d565b5b610a44825461080c565b610a4f82828561098b565b600060209050601f831160018114610a825760008415610a70578287015190505b610a7a85826109fc565b865550610ae2565b601f198416610a908661086c565b60005b82811015610ab857848901518255600182019150602085019450602081019050610a93565b86831015610ad55784890151610ad1601f8916826109de565b8355505b6001600288020188555050505b50505050505056fea26469706673582212205c6ccdfb713194a04e08d24e23e519f8925ce8f3eb667a2cfcdf51082b0d70e364736f6c63430008130033",
    "linkReferences": {},
    "deployedLinkReferences": {}
}